:10033F00C0F9A4B0999282F880908883C6A1868E66
:0E034F007ED7B777DBBB7BDDBD000000000072
:10035D00141F000100010001000100010001000156
:06036D0000010001000088
:10029200750EC8750FFF78107C007D007BFF7A0316
:1002A200794F7E007F0E1201E07590F0E59064F0C8
:1002B2006038AF0E150EEF70F9E51E702AAF90751B
:1002C20090FFEF440FF59085900F751E017F01742A
:1002D200102FF8E6B50F0BEF25E0241FF8E4F6081F
:0F02E200F6220FBF09E9227FFF22E4F51E7FFFFE
:0102F10022EA
:1002F2007580FFEF600690033F93F580E52245216C
:100302007002C2A0E52445237002C2A1E52645255C
:100312007002C2A2E52845277002C2A3E52A452938
:100322007002C2A4E52C452B7002C2A5E52E452D14
:0D0332007002C2A6E530452F7002C2A7225E
:10000300E4FEF508F509750AC8750B20F50C750DA6
:1000130001D2A0D2A1D2A2D2A3D2A4D2A5D2A6D2D7
:10002300A7120292AE07EEC39409500DE5097009B9
:100033008E08C2B0C2B375090130B7030200D7AF4F
:100043000A150AEF70F9750AC830B7030200D7D250
:10005300B0D2B3F509E50814B40800507490006EEB
:1000630075F003A4C58325F0C583730200860200DF
:100073009002009A0200A40200AE0200B80200C27D
:100083000200CC752100752201D2A08044752300A3
:10009300752401D2A1803A752500752601D2A2806C
:1000A30030752700752801D2A38026752900752A8B
:1000B30001D2A4801C752B00752C01D2A58012756A
:1000C3002D00752E01D2A68008752F00753001D240
:1000D300A7E4F508750C00750D01AF0DEF25E024BD
:1000E3001FF8E6FC08E64C70048F08800E050DE54A
:1000F3000D7002050C6409450C70DFAF0B150BEF97
:0D01030070F9750B20AF081202F202002403
:03000000020206F3
:0C020600787FE4F6D8FD75813202024DCD
:10011000E709F608DFFA8046E709F208DFFA803ED1
:1001200088828C83E709F0A3DFFA8032E309F608BE
:10013000DFFA8078E309F208DFFA807088828C8326
:10014000E309F0A3DFFA806489828A83E0A3F608DA
:10015000DFFA805889828A83E0A3F208DFFA804CB4
:1001600080D280FA80C680D4806980F2803380108B
:1001700080A680EA809A80A880DA80E280CA8033F4
:1001800089828A83ECFAE493A3C8C582C8CCC5836C
:10019000CCF0A3C8C582C8CCC583CCDFE9DEE7803C
:1001A0000D89828A83E493A3F608DFF9ECFAA9F0BB
:1001B000EDFB2289828A83ECFAE0A3C8C582C8CC11
:1001C000C583CCF0A3C8C582C8CCC583CCDFEADE2A
:1001D000E880DB89828A83E493A3F208DFF980CC8C
:1001E00088F0EF60010E4E60C388F0ED2402B40485
:1001F0000050B9F582EB2402B4040050AF2323452C
:06020000822390016073EF
:10021200020003E493A3F8E493A34003F68001F2FF
:1002220008DFF48029E493A3F85407240CC8C333ED
:10023200C4540F4420C8834004F456800146F6DFBC
:10024200E4800B010204081020408090035DE47EEC
:10025200019360BCA3FF543F30E509541FFEE493B1
:10026200A360010ECF54C025E060A840B8E493A378
:10027200FAE493A3F8E493A3C8C582C8CAC583CAA3
:10028200F0A3C8C582C8CAC583CADFE9DEE780BE5B
:010373000089
:00000001FF
