BL51 BANKED LINKER/LOCATER V6.22.2.0                                                    07/03/2022  23:32:15  PAGE 1


BL51 BANKED LINKER/LOCATER V6.22.2.0, INVOKED BY:
D:\PROGRAMFILE\KEIL\C51\BIN\BL51.EXE main.obj TO cx


MEMORY MODEL: SMALL


INPUT MODULES INCLUDED:
  main.obj (MAIN)
  D:\PROGRAMFILE\KEIL\C51\LIB\C51S.LIB (?C_STARTUP)
  D:\PROGRAMFILE\KEIL\C51\LIB\C51S.LIB (?C?COPY)
  D:\PROGRAMFILE\KEIL\C51\LIB\C51S.LIB (?C_INIT)


LINK MAP OF MODULE:  cx (MAIN)


            TYPE    BASE      LENGTH    RELOCATION   SEGMENT NAME
            -----------------------------------------------------

            * * * * * * *   D A T A   M E M O R Y   * * * * * * *
            REG     0000H     0008H     ABSOLUTE     "REG BANK 0"
            DATA    0008H     0016H     UNIT         _DATA_GROUP_
            DATA    001EH     0015H     UNIT         ?DT?MAIN
            IDATA   0033H     0001H     UNIT         ?STACK

            * * * * * * *   C O D E   M E M O R Y   * * * * * * *
            CODE    0000H     0003H     ABSOLUTE     
            CODE    0003H     010DH     UNIT         ?PR?MAIN?MAIN
            CODE    0110H     00F6H     UNIT         ?C?LIB_CODE
            CODE    0206H     008CH     UNIT         ?C_C51STARTUP
            CODE    0292H     0060H     UNIT         ?PR?KEY_SCAN?MAIN
            CODE    02F2H     004DH     UNIT         ?PR?_DISPALY?MAIN
            CODE    033FH     001EH     UNIT         ?CO?MAIN
            CODE    035DH     0017H     UNIT         ?C_INITSEG



OVERLAY MAP OF MODULE:   cx (MAIN)


SEGMENT                          DATA_GROUP 
  +--> CALLED SEGMENT          START    LENGTH
----------------------------------------------
?C_C51STARTUP                  -----    -----
  +--> ?PR?MAIN?MAIN
  +--> ?C_INITSEG

?PR?MAIN?MAIN                  0008H    0006H
  +--> ?PR?KEY_SCAN?MAIN
  +--> ?PR?_DISPALY?MAIN

?PR?KEY_SCAN?MAIN              000EH    0010H
  +--> ?CO?MAIN

?PR?_DISPALY?MAIN              -----    -----
  +--> ?CO?MAIN

BL51 BANKED LINKER/LOCATER V6.22.2.0                                                  07/03/2022  23:32:15  PAGE 2




SYMBOL TABLE OF MODULE:  cx (MAIN)

  VALUE           TYPE          NAME
  ----------------------------------

  -------         MODULE        MAIN
  C:0000H         SYMBOL        _ICE_DUMMY_
  D:0080H         PUBLIC        P0
  D:0090H         PUBLIC        P1
  D:00A0H         PUBLIC        P2
  D:00B0H         PUBLIC        P3
  C:033FH         PUBLIC        table
  D:001FH         PUBLIC        array
  C:0003H         PUBLIC        main
  C:0292H         PUBLIC        Key_scan
  C:034FH         SYMBOL        _?ix1000
  B:00B0H.7       PUBLIC        key
  B:00B0H.0       PUBLIC        LED
  C:02F2H         PUBLIC        _Dispaly
  B:00B0H.3       PUBLIC        BUZZER
  B:00A0H.0       PUBLIC        led1
  B:00A0H.1       PUBLIC        led2
  B:00A0H.2       PUBLIC        led3
  B:00A0H.3       PUBLIC        led4
  B:00A0H.4       PUBLIC        led5
  B:00A0H.5       PUBLIC        led6
  B:00A0H.6       PUBLIC        led7
  B:00A0H.7       PUBLIC        led8
  -------         PROC          KEY_SCAN
  -------         DO            
  D:001EH         SYMBOL        key_down
  D:000EH         SYMBOL        t
  D:000FH         SYMBOL        key_num
  D:0007H         SYMBOL        tem
  D:0007H         SYMBOL        i
  D:0010H         SYMBOL        keynum_tab
  -------         ENDDO         
  C:0292H         LINE#         21
  C:0292H         LINE#         22
  C:0292H         LINE#         24
  C:0295H         LINE#         25
  C:0298H         LINE#         26
  C:02ABH         LINE#         27
  C:02AEH         LINE#         28
  C:02B4H         LINE#         29
  C:02B4H         LINE#         30
  C:02BBH         LINE#         31
  C:02BFH         LINE#         32
  C:02BFH         LINE#         33
  C:02C1H         LINE#         34
  C:02C4H         LINE#         35
  C:02C9H         LINE#         36
  C:02CCH         LINE#         37
  C:02CFH         LINE#         39
  C:02D1H         LINE#         40
BL51 BANKED LINKER/LOCATER V6.22.2.0                                                  07/03/2022  23:32:15  PAGE 3


  C:02D1H         LINE#         41
  C:02D9H         LINE#         42
  C:02E3H         LINE#         44
  C:02E4H         LINE#         45
  C:02E8H         LINE#         46
  C:02E9H         LINE#         48
  C:02E9H         LINE#         50
  C:02ECH         LINE#         51
  C:02ECH         LINE#         53
  C:02ECH         LINE#         54
  C:02EFH         LINE#         55
  C:02F1H         LINE#         56
  C:02F1H         LINE#         58
  -------         ENDPROC       KEY_SCAN
  -------         PROC          _DISPALY
  D:0007H         SYMBOL        num
  C:02F2H         LINE#         60
  C:02F2H         LINE#         61
  C:02F2H         LINE#         63
  C:02F5H         LINE#         65
  C:02F8H         LINE#         66
  C:02FEH         LINE#         67
  C:02FEH         LINE#         68
  C:0304H         LINE#         69
  C:0306H         LINE#         70
  C:0306H         LINE#         71
  C:030CH         LINE#         72
  C:030EH         LINE#         73
  C:030EH         LINE#         74
  C:0314H         LINE#         75
  C:0316H         LINE#         76
  C:0316H         LINE#         77
  C:031CH         LINE#         78
  C:031EH         LINE#         79
  C:031EH         LINE#         80
  C:0324H         LINE#         81
  C:0326H         LINE#         82
  C:0326H         LINE#         83
  C:032CH         LINE#         84
  C:032EH         LINE#         85
  C:032EH         LINE#         86
  C:0334H         LINE#         87
  C:0336H         LINE#         88
  C:0336H         LINE#         89
  C:033CH         LINE#         90
  C:033EH         LINE#         91
  C:033EH         LINE#         93
  -------         ENDPROC       _DISPALY
  -------         PROC          MAIN
  -------         DO            
  D:0006H         SYMBOL        num
  D:0008H         SYMBOL        House_num
  D:0009H         SYMBOL        flag
  D:000AH         SYMBOL        i
  D:000BH         SYMBOL        k
  D:000CH         SYMBOL        j
  -------         ENDDO         
BL51 BANKED LINKER/LOCATER V6.22.2.0                                                  07/03/2022  23:32:15  PAGE 4


  C:0003H         LINE#         97
  C:0003H         LINE#         98
  C:0003H         LINE#         99
  C:0007H         LINE#         100
  C:0009H         LINE#         101
  C:000CH         LINE#         102
  C:000FH         LINE#         104
  C:0014H         LINE#         105
  C:0016H         LINE#         106
  C:0018H         LINE#         107
  C:001AH         LINE#         108
  C:001CH         LINE#         109
  C:001EH         LINE#         110
  C:0020H         LINE#         111
  C:0022H         LINE#         112
  C:0024H         LINE#         114
  C:0024H         LINE#         115
  C:0024H         LINE#         116
  C:0029H         LINE#         117
  C:0033H         LINE#         118
  C:0033H         LINE#         119
  C:0035H         LINE#         120
  C:0037H         LINE#         121
  C:0039H         LINE#         122
  C:003CH         LINE#         123
  C:003CH         LINE#         124
  C:0042H         LINE#         125
  C:0042H         LINE#         126
  C:0049H         LINE#         127
  C:004CH         LINE#         128
  C:0052H         LINE#         129
  C:0052H         LINE#         130
  C:0054H         LINE#         131
  C:0056H         LINE#         133
  C:0058H         LINE#         135
  C:0086H         LINE#         136
  C:0086H         LINE#         137
  C:008CH         LINE#         138
  C:008EH         LINE#         139
  C:0090H         LINE#         140
  C:0090H         LINE#         141
  C:0096H         LINE#         142
  C:0098H         LINE#         143
  C:009AH         LINE#         144
  C:009AH         LINE#         145
  C:00A0H         LINE#         146
  C:00A2H         LINE#         147
  C:00A4H         LINE#         148
  C:00A4H         LINE#         149
  C:00AAH         LINE#         150
  C:00ACH         LINE#         151
  C:00AEH         LINE#         152
  C:00AEH         LINE#         153
  C:00B4H         LINE#         154
  C:00B6H         LINE#         155
  C:00B8H         LINE#         156
  C:00B8H         LINE#         157
BL51 BANKED LINKER/LOCATER V6.22.2.0                                                  07/03/2022  23:32:15  PAGE 5


  C:00BEH         LINE#         158
  C:00C0H         LINE#         159
  C:00C2H         LINE#         160
  C:00C2H         LINE#         161
  C:00C8H         LINE#         162
  C:00CCH         LINE#         163
  C:00CCH         LINE#         164
  C:00D2H         LINE#         165
  C:00D4H         LINE#         166
  C:00D4H         LINE#         167
  C:00D4H         LINE#         168
  C:00D4H         LINE#         169
  C:00D4H         LINE#         170
  C:00D7H         LINE#         172
  C:00D7H         LINE#         173
  C:00D7H         LINE#         175
  C:00DDH         LINE#         176
  C:00ECH         LINE#         177
  C:00EEH         LINE#         178
  C:00F0H         LINE#         179
  C:00F0H         LINE#         180
  C:00FEH         LINE#         181
  C:0105H         LINE#         182
  C:0108H         LINE#         183
  C:010DH         LINE#         184
  -------         ENDPROC       MAIN
  -------         ENDMOD        MAIN

  -------         MODULE        ?C?COPY
  C:01E0H         PUBLIC        ?C?COPY
  -------         ENDMOD        ?C?COPY

Program Size: data=52.0 xdata=0 code=884
LINK/LOCATE RUN COMPLETE.  0 WARNING(S),  0 ERROR(S)
